{
  "contractName": "EVcharging",
  "abi": [
    {
      "constant": true,
      "inputs": [],
      "name": "uIdLast",
      "outputs": [
        {
          "name": "",
          "type": "uint256"
        }
      ],
      "payable": false,
      "stateMutability": "view",
      "type": "function",
      "signature": "0x047ba7e9"
    },
    {
      "constant": true,
      "inputs": [
        {
          "name": "_myid",
          "type": "bytes32"
        },
        {
          "name": "_result",
          "type": "string"
        }
      ],
      "name": "__callback",
      "outputs": [],
      "payable": false,
      "stateMutability": "pure",
      "type": "function",
      "signature": "0x27dc297e"
    },
    {
      "constant": true,
      "inputs": [
        {
          "name": "",
          "type": "uint256"
        }
      ],
      "name": "evUtilities",
      "outputs": [
        {
          "name": "uId",
          "type": "uint256"
        },
        {
          "name": "uName",
          "type": "bytes32"
        },
        {
          "name": "uOwner",
          "type": "address"
        },
        {
          "name": "uLogo",
          "type": "string"
        }
      ],
      "payable": false,
      "stateMutability": "view",
      "type": "function",
      "signature": "0x33f4d741"
    },
    {
      "constant": true,
      "inputs": [
        {
          "name": "",
          "type": "uint256"
        }
      ],
      "name": "slots",
      "outputs": [
        {
          "name": "uId",
          "type": "uint256"
        },
        {
          "name": "sId",
          "type": "uint256"
        },
        {
          "name": "slotId",
          "type": "uint256"
        },
        {
          "name": "customerName",
          "type": "bytes32"
        },
        {
          "name": "tArrival",
          "type": "uint256"
        },
        {
          "name": "tDeparture",
          "type": "uint256"
        },
        {
          "name": "tKWH",
          "type": "uint256"
        },
        {
          "name": "tLocationRate",
          "type": "uint256"
        },
        {
          "name": "tEnergyRate",
          "type": "uint256"
        },
        {
          "name": "tPrice",
          "type": "uint256"
        },
        {
          "name": "paid",
          "type": "bool"
        }
      ],
      "payable": false,
      "stateMutability": "view",
      "type": "function",
      "signature": "0x387dd9e9"
    },
    {
      "constant": true,
      "inputs": [
        {
          "name": "_myid",
          "type": "bytes32"
        },
        {
          "name": "_result",
          "type": "string"
        },
        {
          "name": "_proof",
          "type": "bytes"
        }
      ],
      "name": "__callback",
      "outputs": [],
      "payable": false,
      "stateMutability": "pure",
      "type": "function",
      "signature": "0x38bbfa50"
    },
    {
      "constant": false,
      "inputs": [],
      "name": "renounceOwnership",
      "outputs": [],
      "payable": false,
      "stateMutability": "nonpayable",
      "type": "function",
      "signature": "0x715018a6"
    },
    {
      "constant": true,
      "inputs": [],
      "name": "owner",
      "outputs": [
        {
          "name": "",
          "type": "address"
        }
      ],
      "payable": false,
      "stateMutability": "view",
      "type": "function",
      "signature": "0x8da5cb5b"
    },
    {
      "constant": true,
      "inputs": [],
      "name": "slotIdLast",
      "outputs": [
        {
          "name": "",
          "type": "uint256"
        }
      ],
      "payable": false,
      "stateMutability": "view",
      "type": "function",
      "signature": "0x8ebb565e"
    },
    {
      "constant": true,
      "inputs": [],
      "name": "isOwner",
      "outputs": [
        {
          "name": "",
          "type": "bool"
        }
      ],
      "payable": false,
      "stateMutability": "view",
      "type": "function",
      "signature": "0x8f32d59b"
    },
    {
      "constant": true,
      "inputs": [],
      "name": "sIdLast",
      "outputs": [
        {
          "name": "",
          "type": "uint256"
        }
      ],
      "payable": false,
      "stateMutability": "view",
      "type": "function",
      "signature": "0xa8ece984"
    },
    {
      "constant": true,
      "inputs": [],
      "name": "paymentIdLast",
      "outputs": [
        {
          "name": "",
          "type": "uint256"
        }
      ],
      "payable": false,
      "stateMutability": "view",
      "type": "function",
      "signature": "0xabc0a44c"
    },
    {
      "constant": false,
      "inputs": [
        {
          "name": "newOwner",
          "type": "address"
        }
      ],
      "name": "transferOwnership",
      "outputs": [],
      "payable": false,
      "stateMutability": "nonpayable",
      "type": "function",
      "signature": "0xf2fde38b"
    },
    {
      "constant": true,
      "inputs": [
        {
          "name": "",
          "type": "uint256"
        }
      ],
      "name": "evStations",
      "outputs": [
        {
          "name": "uId",
          "type": "uint256"
        },
        {
          "name": "sId",
          "type": "uint256"
        },
        {
          "name": "stationName",
          "type": "bytes32"
        },
        {
          "name": "city",
          "type": "bytes32"
        },
        {
          "name": "chargerType",
          "type": "bytes32"
        }
      ],
      "payable": false,
      "stateMutability": "view",
      "type": "function",
      "signature": "0xf440d5ab"
    },
    {
      "payable": true,
      "stateMutability": "payable",
      "type": "fallback"
    },
    {
      "anonymous": false,
      "inputs": [
        {
          "indexed": false,
          "name": "nextStep",
          "type": "string"
        }
      ],
      "name": "LogConstructorInitiated",
      "type": "event",
      "signature": "0x11a3fca63f87bd67d7f9f72b744acc8be2193705e7a734ac3a773d35d259e87b"
    },
    {
      "anonymous": false,
      "inputs": [
        {
          "indexed": false,
          "name": "price",
          "type": "string"
        }
      ],
      "name": "LogPriceUpdated",
      "type": "event",
      "signature": "0x71f1a5645e51a2da828ffcf79cc17da88eb25e1bca8b9dced23210847a4769c1"
    },
    {
      "anonymous": false,
      "inputs": [
        {
          "indexed": false,
          "name": "description",
          "type": "string"
        }
      ],
      "name": "LogNewOraclizeQuery",
      "type": "event",
      "signature": "0x621c2856e3b87f81235f8ac8a22bbb40a0142961960710d00b2b6c380902b57e"
    },
    {
      "anonymous": false,
      "inputs": [
        {
          "indexed": true,
          "name": "uId",
          "type": "uint256"
        },
        {
          "indexed": true,
          "name": "uName",
          "type": "bytes32"
        },
        {
          "indexed": false,
          "name": "uOwner",
          "type": "address"
        },
        {
          "indexed": false,
          "name": "uLogo",
          "type": "string"
        }
      ],
      "name": "LogEVutilityAdded",
      "type": "event",
      "signature": "0xf680d14d171fdab460aaae321d3de3e6fdcd9b481201b20fd493c7cddfbb6d93"
    },
    {
      "anonymous": false,
      "inputs": [
        {
          "indexed": true,
          "name": "uId",
          "type": "uint256"
        },
        {
          "indexed": false,
          "name": "newUName",
          "type": "bytes32"
        },
        {
          "indexed": false,
          "name": "newUOwner",
          "type": "address"
        },
        {
          "indexed": false,
          "name": "newULogo",
          "type": "string"
        }
      ],
      "name": "LogEVutilityUpdated",
      "type": "event",
      "signature": "0x8dad12553b60eb45a5e6c2097a571b93e8b0d4155e3619e37fc6c63db376abf0"
    },
    {
      "anonymous": false,
      "inputs": [
        {
          "indexed": true,
          "name": "uId",
          "type": "uint256"
        }
      ],
      "name": "LogEVutilityRemoved",
      "type": "event",
      "signature": "0x7a589c6c2c505a2d2174fd5f8d07140122608c85789814cc38b4870689bb504b"
    },
    {
      "anonymous": false,
      "inputs": [
        {
          "indexed": false,
          "name": "uId",
          "type": "uint256"
        },
        {
          "indexed": true,
          "name": "sId",
          "type": "uint256"
        },
        {
          "indexed": false,
          "name": "city",
          "type": "bytes32"
        },
        {
          "indexed": false,
          "name": "stationName",
          "type": "bytes32"
        },
        {
          "indexed": false,
          "name": "chargerType",
          "type": "bytes32"
        }
      ],
      "name": "LogEVstationAdded",
      "type": "event",
      "signature": "0x981463eb8108cd47cf772f9ea46f18aa0441ff4e0ab6fcaa6f4320437a375c07"
    },
    {
      "anonymous": false,
      "inputs": [
        {
          "indexed": true,
          "name": "sId",
          "type": "uint256"
        },
        {
          "indexed": false,
          "name": "city",
          "type": "bytes32"
        },
        {
          "indexed": false,
          "name": "stationName",
          "type": "bytes32"
        },
        {
          "indexed": false,
          "name": "chargerType",
          "type": "bytes32"
        }
      ],
      "name": "LogEVstationUpdated",
      "type": "event",
      "signature": "0x67586d30452f2f619fea22f03ce3ae5e02b7d262b8a6514f02e36ca1568a33fc"
    },
    {
      "anonymous": false,
      "inputs": [
        {
          "indexed": true,
          "name": "paymentId",
          "type": "uint256"
        },
        {
          "indexed": true,
          "name": "customer",
          "type": "address"
        },
        {
          "indexed": true,
          "name": "uId",
          "type": "uint256"
        },
        {
          "indexed": false,
          "name": "sId",
          "type": "uint256"
        },
        {
          "indexed": false,
          "name": "customerName",
          "type": "bytes32"
        },
        {
          "indexed": false,
          "name": "tPrice",
          "type": "uint256"
        },
        {
          "indexed": false,
          "name": "tArrival",
          "type": "uint256"
        },
        {
          "indexed": false,
          "name": "tDeparture",
          "type": "uint256"
        }
      ],
      "name": "LogSlotPaid",
      "type": "event",
      "signature": "0xf7ab9d048003b423876a250748e7b35d0108a72c4ffb0ae51a0f5f68dbc48542"
    },
    {
      "anonymous": false,
      "inputs": [
        {
          "indexed": true,
          "name": "previousOwner",
          "type": "address"
        },
        {
          "indexed": true,
          "name": "newOwner",
          "type": "address"
        }
      ],
      "name": "OwnershipTransferred",
      "type": "event",
      "signature": "0x8be0079c531659141344cd1fd0a4f28419497f9722a3daafe3b4186f6b6457e0"
    },
    {
      "constant": false,
      "inputs": [
        {
          "name": "_sId",
          "type": "uint256"
        },
        {
          "name": "_customerName",
          "type": "bytes32"
        },
        {
          "name": "_arrival",
          "type": "uint256"
        },
        {
          "name": "_departure",
          "type": "uint256"
        },
        {
          "name": "_KWH",
          "type": "uint256"
        }
      ],
      "name": "paySlot",
      "outputs": [],
      "payable": true,
      "stateMutability": "payable",
      "type": "function",
      "signature": "0x9f3fc0f6"
    },
    {
      "constant": true,
      "inputs": [
        {
          "name": "_sId",
          "type": "uint256"
        }
      ],
      "name": "getLocationRate",
      "outputs": [
        {
          "name": "",
          "type": "uint256"
        }
      ],
      "payable": false,
      "stateMutability": "pure",
      "type": "function",
      "signature": "0x49b65d1d"
    },
    {
      "constant": true,
      "inputs": [
        {
          "name": "_sId",
          "type": "uint256"
        }
      ],
      "name": "getEnergyRate",
      "outputs": [
        {
          "name": "",
          "type": "uint256"
        }
      ],
      "payable": false,
      "stateMutability": "pure",
      "type": "function",
      "signature": "0xc9711bd8"
    },
    {
      "constant": true,
      "inputs": [
        {
          "name": "_sId",
          "type": "uint256"
        },
        {
          "name": "_arrival",
          "type": "uint256"
        },
        {
          "name": "_departure",
          "type": "uint256"
        },
        {
          "name": "_KWH",
          "type": "uint256"
        }
      ],
      "name": "getCost",
      "outputs": [
        {
          "name": "",
          "type": "uint256"
        }
      ],
      "payable": false,
      "stateMutability": "pure",
      "type": "function",
      "signature": "0xcb6d4823"
    },
    {
      "constant": true,
      "inputs": [
        {
          "name": "_uName",
          "type": "bytes32"
        }
      ],
      "name": "evUtilityExists",
      "outputs": [
        {
          "name": "",
          "type": "bool"
        }
      ],
      "payable": false,
      "stateMutability": "view",
      "type": "function",
      "signature": "0x08c8fd04"
    },
    {
      "constant": true,
      "inputs": [],
      "name": "getEVutilityCount",
      "outputs": [
        {
          "name": "",
          "type": "uint256"
        }
      ],
      "payable": false,
      "stateMutability": "view",
      "type": "function",
      "signature": "0x7b7c41ac"
    },
    {
      "constant": true,
      "inputs": [
        {
          "name": "uId",
          "type": "uint256"
        }
      ],
      "name": "getEVstationCount",
      "outputs": [
        {
          "name": "",
          "type": "uint256"
        }
      ],
      "payable": false,
      "stateMutability": "view",
      "type": "function",
      "signature": "0x576b468d"
    },
    {
      "constant": true,
      "inputs": [],
      "name": "getEVstationCount",
      "outputs": [
        {
          "name": "",
          "type": "uint256"
        }
      ],
      "payable": false,
      "stateMutability": "view",
      "type": "function",
      "signature": "0x5237211f"
    },
    {
      "constant": true,
      "inputs": [
        {
          "name": "_uId",
          "type": "uint256"
        }
      ],
      "name": "getEVutilityById",
      "outputs": [
        {
          "name": "uId",
          "type": "uint256"
        },
        {
          "name": "uName",
          "type": "bytes32"
        },
        {
          "name": "uOwner",
          "type": "address"
        },
        {
          "name": "uLogo",
          "type": "string"
        }
      ],
      "payable": false,
      "stateMutability": "view",
      "type": "function",
      "signature": "0x5c286785"
    },
    {
      "constant": true,
      "inputs": [
        {
          "name": "_uId",
          "type": "uint256"
        }
      ],
      "name": "getEVstationsCount",
      "outputs": [
        {
          "name": "",
          "type": "uint256"
        }
      ],
      "payable": false,
      "stateMutability": "view",
      "type": "function",
      "signature": "0x50a5e638"
    },
    {
      "constant": true,
      "inputs": [
        {
          "name": "_sId",
          "type": "uint256"
        }
      ],
      "name": "getEVstationById",
      "outputs": [
        {
          "name": "uId",
          "type": "uint256"
        },
        {
          "name": "sId",
          "type": "uint256"
        },
        {
          "name": "city",
          "type": "bytes32"
        },
        {
          "name": "stationName",
          "type": "bytes32"
        },
        {
          "name": "chargerType",
          "type": "bytes32"
        }
      ],
      "payable": false,
      "stateMutability": "view",
      "type": "function",
      "signature": "0x40e0158b"
    },
    {
      "constant": true,
      "inputs": [
        {
          "name": "_slotId",
          "type": "uint256"
        }
      ],
      "name": "getSlotById",
      "outputs": [
        {
          "components": [
            {
              "name": "uId",
              "type": "uint256"
            },
            {
              "name": "sId",
              "type": "uint256"
            },
            {
              "name": "slotId",
              "type": "uint256"
            },
            {
              "name": "customerName",
              "type": "bytes32"
            },
            {
              "name": "tArrival",
              "type": "uint256"
            },
            {
              "name": "tDeparture",
              "type": "uint256"
            },
            {
              "name": "tKWH",
              "type": "uint256"
            },
            {
              "name": "tLocationRate",
              "type": "uint256"
            },
            {
              "name": "tEnergyRate",
              "type": "uint256"
            },
            {
              "name": "tPrice",
              "type": "uint256"
            },
            {
              "name": "paid",
              "type": "bool"
            }
          ],
          "name": "",
          "type": "tuple"
        }
      ],
      "payable": false,
      "stateMutability": "view",
      "type": "function",
      "signature": "0xd7105f3a"
    },
    {
      "constant": true,
      "inputs": [
        {
          "name": "_uId",
          "type": "uint256"
        },
        {
          "name": "_index",
          "type": "uint256"
        }
      ],
      "name": "getEVstationByEVutility",
      "outputs": [
        {
          "name": "",
          "type": "uint256"
        },
        {
          "name": "",
          "type": "uint256"
        },
        {
          "name": "",
          "type": "bytes32"
        },
        {
          "name": "",
          "type": "bytes32"
        },
        {
          "name": "",
          "type": "bytes32"
        }
      ],
      "payable": false,
      "stateMutability": "view",
      "type": "function",
      "signature": "0x54940a15"
    },
    {
      "constant": true,
      "inputs": [
        {
          "name": "_city",
          "type": "bytes32"
        },
        {
          "name": "_ctype",
          "type": "bytes32"
        },
        {
          "name": "_arrival",
          "type": "uint256"
        },
        {
          "name": "_departure",
          "type": "uint256"
        }
      ],
      "name": "findVacantEVStations",
      "outputs": [
        {
          "name": "",
          "type": "uint256[20]"
        }
      ],
      "payable": false,
      "stateMutability": "view",
      "type": "function",
      "signature": "0x9487b7e3"
    },
    {
      "constant": true,
      "inputs": [
        {
          "name": "_sId",
          "type": "uint256"
        },
        {
          "name": "_arrival",
          "type": "uint256"
        },
        {
          "name": "_departure",
          "type": "uint256"
        }
      ],
      "name": "isStationVacant",
      "outputs": [
        {
          "name": "",
          "type": "bool"
        }
      ],
      "payable": false,
      "stateMutability": "view",
      "type": "function",
      "signature": "0x8aeade1a"
    },
    {
      "constant": false,
      "inputs": [
        {
          "name": "_uName",
          "type": "bytes32"
        },
        {
          "name": "_uOwner",
          "type": "address"
        },
        {
          "name": "_uLogo",
          "type": "string"
        }
      ],
      "name": "addEVutility",
      "outputs": [],
      "payable": false,
      "stateMutability": "nonpayable",
      "type": "function",
      "signature": "0x7bd060b2"
    },
    {
      "constant": false,
      "inputs": [
        {
          "name": "_uId",
          "type": "uint256"
        },
        {
          "name": "_newUName",
          "type": "bytes32"
        },
        {
          "name": "_newUOwner",
          "type": "address"
        },
        {
          "name": "_newULogo",
          "type": "string"
        }
      ],
      "name": "editEVutility",
      "outputs": [],
      "payable": false,
      "stateMutability": "nonpayable",
      "type": "function",
      "signature": "0xa30c79fb"
    },
    {
      "constant": false,
      "inputs": [
        {
          "name": "_uId",
          "type": "uint256"
        },
        {
          "name": "_city",
          "type": "bytes32"
        },
        {
          "name": "_stationName",
          "type": "bytes32"
        },
        {
          "name": "_chargerType",
          "type": "bytes32"
        }
      ],
      "name": "addEVstation",
      "outputs": [],
      "payable": false,
      "stateMutability": "nonpayable",
      "type": "function",
      "signature": "0x0712531c"
    },
    {
      "constant": false,
      "inputs": [
        {
          "name": "_sId",
          "type": "uint256"
        },
        {
          "name": "_city",
          "type": "bytes32"
        },
        {
          "name": "_stationName",
          "type": "bytes32"
        },
        {
          "name": "_newType",
          "type": "bytes32"
        }
      ],
      "name": "editEVstation",
      "outputs": [],
      "payable": false,
      "stateMutability": "nonpayable",
      "type": "function",
      "signature": "0x5d8c7fa0"
    }
  ],
  "bytecode": "0x6080604052336000806101000a81548173ffffffffffffffffffffffffffffffffffffffff021916908373ffffffffffffffffffffffffffffffffffffffff1602179055506000809054906101000a900473ffffffffffffffffffffffffffffffffffffffff1673ffffffffffffffffffffffffffffffffffffffff16600073ffffffffffffffffffffffffffffffffffffffff167f8be0079c531659141344cd1fd0a4f28419497f9722a3daafe3b4186f6b6457e060405160405180910390a3613aba806100cf6000396000f3fe608060405260043610610200576000357c0100000000000000000000000000000000000000000000000000000000900480637b7c41ac1161011f578063a30c79fb116100b2578063cb6d482311610081578063cb6d4823146107b0578063d7105f3a146107ed578063f2fde38b1461082a578063f440d5ab1461085357610200565b8063a30c79fb146106f4578063a8ece9841461071d578063abc0a44c14610748578063c9711bd81461077357610200565b80638ebb565e116100ee5780638ebb565e146106455780638f32d59b146106705780639487b7e31461069b5780639f3fc0f6146106d857610200565b80637b7c41ac146105895780637bd060b2146105b45780638aeade1a146105dd5780638da5cb5b1461061a57610200565b806349b65d1d11610197578063576b468d11610166578063576b468d146104cc5780635c286785146105095780635d8c7fa014610549578063715018a61461057257610200565b806349b65d1d146103e657806350a5e638146104235780635237211f1461046057806354940a151461048b57610200565b806333f4d741116101d357806333f4d741146102f5578063387dd9e91461033557806338bbfa501461037c57806340e0158b146103a557610200565b8063047ba7e91461023b5780630712531c1461026657806308c8fd041461028f57806327dc297e146102cc575b6040517f08c379a0000000000000000000000000000000000000000000000000000000008152600401610232906135af565b60405180910390fd5b34801561024757600080fd5b50610250610894565b60405161025d919061368b565b60405180910390f35b34801561027257600080fd5b5061028d60048036036102889190810190612d93565b61089a565b005b34801561029b57600080fd5b506102b660048036036102b19190810190612b29565b610bd2565b6040516102c3919061345f565b60405180910390f35b3480156102d857600080fd5b506102f360048036036102ee9190810190612c1c565b610bfc565b005b34801561030157600080fd5b5061031c60048036036103179190810190612cef565b610c3f565b60405161032c94939291906136a6565b60405180910390f35b34801561034157600080fd5b5061035c60048036036103579190810190612cef565b610d36565b6040516103739b9a99989796959493929190613829565b60405180910390f35b34801561038857600080fd5b506103a3600480360361039e9190810190612c70565b610dac565b005b3480156103b157600080fd5b506103cc60048036036103c79190810190612cef565b610db1565b6040516103dd9594939291906137d6565b60405180910390f35b3480156103f257600080fd5b5061040d60048036036104089190810190612cef565b610ec6565b60405161041a919061368b565b60405180910390f35b34801561042f57600080fd5b5061044a60048036036104459190810190612cef565b610ede565b604051610457919061368b565b60405180910390f35b34801561046c57600080fd5b50610475610f63565b604051610482919061368b565b60405180910390f35b34801561049757600080fd5b506104b260048036036104ad9190810190612e6d565b610f70565b6040516104c39594939291906137d6565b60405180910390f35b3480156104d857600080fd5b506104f360048036036104ee9190810190612cef565b610fc4565b604051610500919061368b565b60405180910390f35b34801561051557600080fd5b50610530600480360361052b9190810190612cef565b611023565b60405161054094939291906136f2565b60405180910390f35b34801561055557600080fd5b50610570600480360361056b9190810190612d93565b61120b565b005b34801561057e57600080fd5b506105876115f2565b005b34801561059557600080fd5b5061059e6116c4565b6040516105ab919061368b565b60405180910390f35b3480156105c057600080fd5b506105db60048036036105d69190810190612b52565b6116d1565b005b3480156105e957600080fd5b5061060460048036036105ff9190810190612ea9565b6118ee565b604051610611919061345f565b60405180910390f35b34801561062657600080fd5b5061062f611b00565b60405161063c91906133f8565b60405180910390f35b34801561065157600080fd5b5061065a611b29565b604051610667919061368b565b60405180910390f35b34801561067c57600080fd5b50610685611b2f565b604051610692919061345f565b60405180910390f35b3480156106a757600080fd5b506106c260048036036106bd9190810190612bb9565b611b86565b6040516106cf9190613443565b60405180910390f35b6106f260048036036106ed9190810190612df6565b611d0c565b005b34801561070057600080fd5b5061071b60048036036107169190810190612d18565b612174565b005b34801561072957600080fd5b506107326123f0565b60405161073f919061368b565b60405180910390f35b34801561075457600080fd5b5061075d6123f6565b60405161076a919061368b565b60405180910390f35b34801561077f57600080fd5b5061079a60048036036107959190810190612cef565b6123fc565b6040516107a7919061368b565b60405180910390f35b3480156107bc57600080fd5b506107d760048036036107d29190810190612ef8565b612415565b6040516107e4919061368b565b60405180910390f35b3480156107f957600080fd5b50610814600480360361080f9190810190612cef565b61249d565b604051610821919061366f565b60405180910390f35b34801561083657600080fd5b50610851600480360361084c9190810190612b00565b6125dc565b005b34801561085f57600080fd5b5061087a60048036036108759190810190612cef565b6125fb565b60405161088b9594939291906137d6565b60405180910390f35b60075481565b836008600082815260200190815260200160002060000160009054906101000a900460ff161515610900576040517f08c379a00000000000000000000000000000000000000000000000000000000081526004016108f7906135cf565b60405180910390fd5b3373ffffffffffffffffffffffffffffffffffffffff166006600860008481526020019081526020016000206001015481548110151561093c57fe5b906000526020600020906004020160020160009054906101000a900473ffffffffffffffffffffffffffffffffffffffff1673ffffffffffffffffffffffffffffffffffffffff161415156109c6576040517f08c379a00000000000000000000000000000000000000000000000000000000081526004016109bd9061356f565b60405180910390fd5b60006109de6001600b5461264090919063ffffffff16565b905080600b819055506109ef6127bb565b60a060405190810160405280888152602001600b54815260200186815260200187815260200185815250905060006001600a8390806001815401808255809150509060018203906000526020600020906005020160009091929091909150600082015181600001556020820151816001015560408201518160020155606082015181600301556080820151816004015550500390506001600c6000600b54815260200190815260200160002060000160006101000a81548160ff02191690831515021790555080600c6000600b5481526020019081526020016000206001018190555060006001600e60008b8152602001908152602001600020600b54908060018154018082558091505090600182039060005260206000200160009091929091909150550390506001600f60008b81526020019081526020016000206000600b54815260200190815260200160002060000160006101000a81548160ff02191690831515021790555080600f60008b81526020019081526020016000206000600b54815260200190815260200160002060010181905550600b547f981463eb8108cd47cf772f9ea46f18aa0441ff4e0ab6fcaa6f4320437a375c078a898b8a604051610bbf949392919061373e565b60405180910390a2505050505050505050565b60006009600083815260200190815260200160002060009054906101000a900460ff169050919050565b610c3b828260006040519080825280601f01601f191660200182016040528015610c355781602001600182028038833980820191505090505b50610dac565b5050565b600681815481101515610c4e57fe5b90600052602060002090600402016000915090508060000154908060010154908060020160009054906101000a900473ffffffffffffffffffffffffffffffffffffffff1690806003018054600181600116156101000203166002900480601f016020809104026020016040519081016040528092919081815260200182805460018160011615610100020316600290048015610d2c5780601f10610d0157610100808354040283529160200191610d2c565b820191906000526020600020905b815481529060010190602001808311610d0f57829003601f168201915b5050505050905084565b601081815481101515610d4557fe5b90600052602060002090600b020160009150905080600001549080600101549080600201549080600301549080600401549080600501549080600601549080600701549080600801549080600901549080600a0160009054906101000a900460ff1690508b565b505050565b6000806000806000600c600087815260200190815260200160002060000160009054906101000a900460ff161515610e1e576040517f08c379a0000000000000000000000000000000000000000000000000000000008152600401610e159061364f565b60405180910390fd5b610e266127bb565b600a600c600089815260200190815260200160002060010154815481101515610e4b57fe5b906000526020600020906005020160a0604051908101604052908160008201548152602001600182015481526020016002820154815260200160038201548152602001600482015481525050905080600001518160200151826060015183604001518460800151955095509550955095505091939590929450565b600081806001019250506509184e72a0009050919050565b60006008600083815260200190815260200160002060000160009054906101000a900460ff161515610f45576040517f08c379a0000000000000000000000000000000000000000000000000000000008152600401610f3c906134ef565b60405180910390fd5b600e6000838152602001908152602001600020805490509050919050565b6000600a80549050905090565b600080600080600080600e600089815260200190815260200160002087815481101515610f9957fe5b90600052602060002001549050610faf81610db1565b95509550955095509550509295509295909350565b6000806000905060005b600a8054905081101561101957600a81815481101515610fea57fe5b90600052602060002090600502016000015484141561100c5781806001019250505b8080600101915050610fce565b5080915050919050565b600080600060606008600086815260200190815260200160002060000160009054906101000a900460ff16151561108f576040517f08c379a0000000000000000000000000000000000000000000000000000000008152600401611086906134ef565b60405180910390fd5b6110976127f4565b600660086000888152602001908152602001600020600101548154811015156110bc57fe5b90600052602060002090600402016080604051908101604052908160008201548152602001600182015481526020016002820160009054906101000a900473ffffffffffffffffffffffffffffffffffffffff1673ffffffffffffffffffffffffffffffffffffffff1673ffffffffffffffffffffffffffffffffffffffff168152602001600382018054600181600116156101000203166002900480601f0160208091040260200160405190810160405280929190818152602001828054600181600116156101000203166002900480156111d95780601f106111ae576101008083540402835291602001916111d9565b820191906000526020600020905b8154815290600101906020018083116111bc57829003601f168201915b505050505081525050905080600001518160200151826040015183606001518090509450945094509450509193509193565b83600c600082815260200190815260200160002060000160009054906101000a900460ff161515611271576040517f08c379a00000000000000000000000000000000000000000000000000000000081526004016112689061364f565b60405180910390fd5b6112796127bb565b600a600c60008481526020019081526020016000206001015481548110151561129e57fe5b906000526020600020906005020160a06040519081016040529081600082015481526020016001820154815260200160028201548152602001600382015481526020016004820154815250509050600860008260000151815260200190815260200160002060000160009054906101000a900460ff161515611355576040517f08c379a000000000000000000000000000000000000000000000000000000000815260040161134c9061362f565b60405180910390fd5b61135d6127f4565b600660086000846000015181526020019081526020016000206001015481548110151561138657fe5b90600052602060002090600402016080604051908101604052908160008201548152602001600182015481526020016002820160009054906101000a900473ffffffffffffffffffffffffffffffffffffffff1673ffffffffffffffffffffffffffffffffffffffff1673ffffffffffffffffffffffffffffffffffffffff168152602001600382018054600181600116156101000203166002900480601f0160208091040260200160405190810160405280929190818152602001828054600181600116156101000203166002900480156114a35780601f10611478576101008083540402835291602001916114a3565b820191906000526020600020905b81548152906001019060200180831161148657829003601f168201915b50505050508152505090503373ffffffffffffffffffffffffffffffffffffffff16816040015173ffffffffffffffffffffffffffffffffffffffff16141515611522576040517f08c379a00000000000000000000000000000000000000000000000000000000081526004016115199061352f565b60405180910390fd5b6000600c600089815260200190815260200160002060010154905086600a8281548110151561154d57fe5b90600052602060002090600502016003018190555085600a8281548110151561157257fe5b90600052602060002090600502016002018190555084600a8281548110151561159757fe5b906000526020600020906005020160040181905550877f67586d30452f2f619fea22f03ce3ae5e02b7d262b8a6514f02e36ca1568a33fc8888886040516115e0939291906134b8565b60405180910390a25050505050505050565b6115fa611b2f565b151561160557600080fd5b600073ffffffffffffffffffffffffffffffffffffffff166000809054906101000a900473ffffffffffffffffffffffffffffffffffffffff1673ffffffffffffffffffffffffffffffffffffffff167f8be0079c531659141344cd1fd0a4f28419497f9722a3daafe3b4186f6b6457e060405160405180910390a360008060006101000a81548173ffffffffffffffffffffffffffffffffffffffff021916908373ffffffffffffffffffffffffffffffffffffffff160217905550565b6000600680549050905090565b6116d9611b2f565b15156116e457600080fd5b6116ed83610bd2565b15151561172f576040517f08c379a00000000000000000000000000000000000000000000000000000000081526004016117269061350f565b60405180910390fd5b6000611747600160075461264090919063ffffffff16565b9050806007819055506000600160066080604051908101604052808581526020018881526020018773ffffffffffffffffffffffffffffffffffffffff1681526020018681525090806001815401808255809150509060018203906000526020600020906004020160009091929091909150600082015181600001556020820151816001015560408201518160020160006101000a81548173ffffffffffffffffffffffffffffffffffffffff021916908373ffffffffffffffffffffffffffffffffffffffff1602179055506060820151816003019080519060200190611830929190612836565b50505003905060016008600084815260200190815260200160002060000160006101000a81548160ff02191690831515021790555080600860008481526020019081526020016000206001018190555060016009600087815260200190815260200160002060006101000a81548160ff02191690831515021790555084827ff680d14d171fdab460aaae321d3de3e6fdcd9b481201b20fd493c7cddfbb6d9386866040516118df929190613413565b60405180910390a35050505050565b60006118f86128b6565b6000809050600080905060008090505b601080549050811015611a1e5761191d6128db565b60108281548110151561192c57fe5b90600052602060002090600b0201610160604051908101604052908160008201548152602001600182015481526020016002820154815260200160038201548152602001600482015481526020016005820154815260200160068201548152602001600782015481526020016008820154815260200160098201548152602001600a820160009054906101000a900460ff16151515158152505090508881602001511415611a105780604001518585806001019650610400811015156119ee57fe5b6020020181815250508280600101935050610400831415611a0f5750611a1e565b5b508080600101915050611908565b5060008090505b81811015611af0576000848261040081101515611a3e57fe5b60200201519050611a4d6128db565b611a568261249d565b905080608001518910158015611a7057508060a001518911155b80611a8f575080608001518810158015611a8e57508060a001518811155b5b80611aae575088816080015110158015611aad575087816080015111155b5b80611acd5750888160a0015110158015611acc5750878160a0015111155b5b15611ae15760009650505050505050611af9565b50508080600101915050611a25565b50600193505050505b9392505050565b60008060009054906101000a900473ffffffffffffffffffffffffffffffffffffffff16905090565b60115481565b60008060009054906101000a900473ffffffffffffffffffffffffffffffffffffffff1673ffffffffffffffffffffffffffffffffffffffff163373ffffffffffffffffffffffffffffffffffffffff1614905090565b611b8e61293b565b600060149050611b9c61293b565b611ba461293b565b600080905060008090506000809050600091505b600a80549050821015611c8457611bcd6127bb565b600a83815481101515611bdc57fe5b906000526020600020906005020160a060405190810160405290816000820154815260200160018201548152602001600282015481526020016003820154815260200160048201548152505090508b8160600151148015611c4057508a8160800151145b15611c765780602001518685806001019650601481101515611c5e57fe5b60200201818152505086841415611c755750611c84565b5b508180600101925050611bb8565b600083905060008090505b81811015611cf957611cb48782601481101515611ca857fe5b60200201518c8c6118ee565b15611cec578681601481101515611cc757fe5b60200201518684601481101515611cda57fe5b60200201818152505082806001019350505b8080600101915050611c8f565b5084975050505050505050949350505050565b600c600086815260200190815260200160002060000160009054906101000a900460ff161515611d71576040517f08c379a0000000000000000000000000000000000000000000000000000000008152600401611d68906135ef565b60405180910390fd5b6000600a600c600088815260200190815260200160002060010154815481101515611d9857fe5b90600052602060002090600502019050600860008260000154815260200190815260200160002060000160009054906101000a900460ff161515611e11576040517f08c379a0000000000000000000000000000000000000000000000000000000008152600401611e08906134ef565b60405180910390fd5b60006006600860008460000154815260200190815260200160002060010154815481101515611e3c57fe5b906000526020600020906004020190506000611e5a88878787612415565b9050803410151515611ea1576040517f08c379a0000000000000000000000000000000000000000000000000000000008152600401611e989061358f565b60405180910390fd5b6000611eb9600160155461264090919063ffffffff16565b9050806015819055506000611eda600160115461264090919063ffffffff16565b905060006001601061016060405190810160405280896000015481526020018e81526020018581526020018d81526020018c81526020018b81526020018a8152602001611f268f610ec6565b8152602001611f348f6123fc565b8152602001878152602001600115158152509080600181540180825580915050906001820390600052602060002090600b020160009091929091909150600082015181600001556020820151816001015560408201518160020155606082015181600301556080820151816004015560a0820151816005015560c0820151816006015560e082015181600701556101008201518160080155610120820151816009015561014082015181600a0160006101000a81548160ff021916908315150217905550505003905060016012600084815260200190815260200160002060000160006101000a81548160ff0219169083151502179055508060126000848152602001908152602001600020600101819055508460020160009054906101000a900473ffffffffffffffffffffffffffffffffffffffff1673ffffffffffffffffffffffffffffffffffffffff166108fc859081150290604051600060405180830381858888f193505050501580156120b1573d6000803e3d6000fd5b5060008434031115612107573373ffffffffffffffffffffffffffffffffffffffff166108fc8534039081150290604051600060405180830381858888f19350505050158015612105573d6000803e3d6000fd5b505b85600001543373ffffffffffffffffffffffffffffffffffffffff16847ff7ab9d048003b423876a250748e7b35d0108a72c4ffb0ae51a0f5f68dbc4854289600101548e898f8f60405161215f959493929190613783565b60405180910390a45050505050505050505050565b61217c611b2f565b151561218757600080fd5b6008600085815260200190815260200160002060000160009054906101000a900460ff1615156121ec576040517f08c379a00000000000000000000000000000000000000000000000000000000081526004016121e3906134ef565b60405180910390fd5b60006008600086815260200190815260200160002060010154905060068181548110151561221657fe5b906000526020600020906004020160010154841415156123195761223984610bd2565b15151561227b576040517f08c379a00000000000000000000000000000000000000000000000000000000081526004016122729061360f565b60405180910390fd5b60006009600060068481548110151561229057fe5b906000526020600020906004020160010154815260200190815260200160002060006101000a81548160ff02191690831515021790555060016009600086815260200190815260200160002060006101000a81548160ff0219169083151502179055508360068281548110151561230357fe5b9060005260206000209060040201600101819055505b8260068281548110151561232957fe5b906000526020600020906004020160020160006101000a81548173ffffffffffffffffffffffffffffffffffffffff021916908373ffffffffffffffffffffffffffffffffffffffff1602179055508160068281548110151561238857fe5b906000526020600020906004020160030190805190602001906123ac92919061295f565b50847f8dad12553b60eb45a5e6c2097a571b93e8b0d4155e3619e37fc6c63db376abf08585856040516123e19392919061347a565b60405180910390a25050505050565b600b5481565b60155481565b60008180600101925050660aa87bee5380009050919050565b60008061242186610ec6565b90506000612438868661266190919063ffffffff16565b9050600061244f828461268390919063ffffffff16565b9050600061245c896123fc565b90506000612473878361268390919063ffffffff16565b9050600061248a828561264090919063ffffffff16565b9050809650505050505050949350505050565b6124a56128db565b6012600083815260200190815260200160002060000160009054906101000a900460ff16151561250a576040517f08c379a00000000000000000000000000000000000000000000000000000000081526004016125019061354f565b60405180910390fd5b6125126128db565b6010601260008581526020019081526020016000206001015481548110151561253757fe5b90600052602060002090600b0201610160604051908101604052908160008201548152602001600182015481526020016002820154815260200160038201548152602001600482015481526020016005820154815260200160068201548152602001600782015481526020016008820154815260200160098201548152602001600a820160009054906101000a900460ff161515151581525050905080915050919050565b6125e4611b2f565b15156125ef57600080fd5b6125f8816126c1565b50565b600a8181548110151561260a57fe5b90600052602060002090600502016000915090508060000154908060010154908060020154908060030154908060040154905085565b600080828401905083811015151561265757600080fd5b8091505092915050565b600082821115151561267257600080fd5b600082840390508091505092915050565b60008083141561269657600090506126bb565b600082840290508284828115156126a957fe5b041415156126b657600080fd5b809150505b92915050565b600073ffffffffffffffffffffffffffffffffffffffff168173ffffffffffffffffffffffffffffffffffffffff16141515156126fd57600080fd5b8073ffffffffffffffffffffffffffffffffffffffff166000809054906101000a900473ffffffffffffffffffffffffffffffffffffffff1673ffffffffffffffffffffffffffffffffffffffff167f8be0079c531659141344cd1fd0a4f28419497f9722a3daafe3b4186f6b6457e060405160405180910390a3806000806101000a81548173ffffffffffffffffffffffffffffffffffffffff021916908373ffffffffffffffffffffffffffffffffffffffff16021790555050565b60a06040519081016040528060008152602001600081526020016000801916815260200160008019168152602001600080191681525090565b6080604051908101604052806000815260200160008019168152602001600073ffffffffffffffffffffffffffffffffffffffff168152602001606081525090565b828054600181600116156101000203166002900490600052602060002090601f016020900481019282601f1061287757805160ff19168380011785556128a5565b828001600101855582156128a5579182015b828111156128a4578251825591602001919060010190612889565b5b5090506128b291906129df565b5090565b6180006040519081016040528061040090602082028038833980820191505090505090565b61016060405190810160405280600081526020016000815260200160008152602001600080191681526020016000815260200160008152602001600081526020016000815260200160008152602001600081526020016000151581525090565b61028060405190810160405280601490602082028038833980820191505090505090565b828054600181600116156101000203166002900490600052602060002090601f016020900481019282601f106129a057805160ff19168380011785556129ce565b828001600101855582156129ce579182015b828111156129cd5782518255916020019190600101906129b2565b5b5090506129db91906129df565b5090565b612a0191905b808211156129fd5760008160009055506001016129e5565b5090565b90565b6000612a1082356139f5565b905092915050565b6000612a248235613a07565b905092915050565b6000612a388235613a19565b905092915050565b600082601f8301121515612a5357600080fd5b8135612a66612a6182613901565b6138d4565b91508082526020830160208301858383011115612a8257600080fd5b612a8d838284613a2d565b50505092915050565b600082601f8301121515612aa957600080fd5b8135612abc612ab78261392d565b6138d4565b91508082526020830160208301858383011115612ad857600080fd5b612ae3838284613a2d565b50505092915050565b6000612af88235613a23565b905092915050565b600060208284031215612b1257600080fd5b6000612b2084828501612a04565b91505092915050565b600060208284031215612b3b57600080fd5b6000612b4984828501612a2c565b91505092915050565b600080600060608486031215612b6757600080fd5b6000612b7586828701612a2c565b9350506020612b8686828701612a18565b925050604084013567ffffffffffffffff811115612ba357600080fd5b612baf86828701612a96565b9150509250925092565b60008060008060808587031215612bcf57600080fd5b6000612bdd87828801612a2c565b9450506020612bee87828801612a2c565b9350506040612bff87828801612aec565b9250506060612c1087828801612aec565b91505092959194509250565b60008060408385031215612c2f57600080fd5b6000612c3d85828601612a2c565b925050602083013567ffffffffffffffff811115612c5a57600080fd5b612c6685828601612a96565b9150509250929050565b600080600060608486031215612c8557600080fd5b6000612c9386828701612a2c565b935050602084013567ffffffffffffffff811115612cb057600080fd5b612cbc86828701612a96565b925050604084013567ffffffffffffffff811115612cd957600080fd5b612ce586828701612a40565b9150509250925092565b600060208284031215612d0157600080fd5b6000612d0f84828501612aec565b91505092915050565b60008060008060808587031215612d2e57600080fd5b6000612d3c87828801612aec565b9450506020612d4d87828801612a2c565b9350506040612d5e87828801612a18565b925050606085013567ffffffffffffffff811115612d7b57600080fd5b612d8787828801612a96565b91505092959194509250565b60008060008060808587031215612da957600080fd5b6000612db787828801612aec565b9450506020612dc887828801612a2c565b9350506040612dd987828801612a2c565b9250506060612dea87828801612a2c565b91505092959194509250565b600080600080600060a08688031215612e0e57600080fd5b6000612e1c88828901612aec565b9550506020612e2d88828901612a2c565b9450506040612e3e88828901612aec565b9350506060612e4f88828901612aec565b9250506080612e6088828901612aec565b9150509295509295909350565b60008060408385031215612e8057600080fd5b6000612e8e85828601612aec565b9250506020612e9f85828601612aec565b9150509250929050565b600080600060608486031215612ebe57600080fd5b6000612ecc86828701612aec565b9350506020612edd86828701612aec565b9250506040612eee86828701612aec565b9150509250925092565b60008060008060808587031215612f0e57600080fd5b6000612f1c87828801612aec565b9450506020612f2d87828801612aec565b9350506040612f3e87828801612aec565b9250506060612f4f87828801612aec565b91505092959194509250565b612f64816139a3565b82525050565b612f7381613991565b82525050565b612f8281613963565b612f8b82613959565b60005b82811015612fbd57612fa18583516133e9565b612faa82613984565b9150602085019450600181019050612f8e565b5050505050565b612fcd816139b5565b82525050565b612fdc816139c1565b82525050565b6000612fed82613979565b808452613001816020860160208601613a3c565b61300a81613a6f565b602085010191505092915050565b60006130238261396e565b808452613037816020860160208601613a3c565b61304081613a6f565b602085010191505092915050565b6000601882527f45567574696c69747920646f6573206e6f7420657869737400000000000000006020830152604082019050919050565b6000601f82527f65765574696c697479206e616d6520697320616c72656164792074616b656e006020830152604082019050919050565b6000601782527f4e6f742074686520657653746174696f6e206f776e65720000000000000000006020830152604082019050919050565b6000601382527f536c6f7420646f6573206e6f74206578697374000000000000000000000000006020830152604082019050919050565b6000601782527f4e6f74207468652065765574696c697479206f776e65720000000000000000006020830152604082019050919050565b6000601282527f496e73756666696369656e742066756e647300000000000000000000000000006020830152604082019050919050565b6000601b82527f506c61696e207061796d656e7473206e6f7420616363657074656400000000006020830152604082019050919050565b6000601982527f4556205574696c69747920646f6573206e6f74206578697374000000000000006020830152604082019050919050565b6000601882527f657653746174696f6e20646f6573206e6f7420657869737400000000000000006020830152604082019050919050565b6000602382527f4e65772065765574696c697479206e616d6520697320616c726561647920746160208301527f6b656e00000000000000000000000000000000000000000000000000000000006040830152606082019050919050565b6000602082527f45567574696c69747920646f6573206e6f7420657869737420616e796d6f72656020830152604082019050919050565b6000601882527f455673746174696f6e20646f6573206e6f7420657869737400000000000000006020830152604082019050919050565b6101608201600082015161331f60008501826133e9565b50602082015161333260208501826133e9565b50604082015161334560408501826133e9565b5060608201516133586060850182612fd3565b50608082015161336b60808501826133e9565b5060a082015161337e60a08501826133e9565b5060c082015161339160c08501826133e9565b5060e08201516133a460e08501826133e9565b506101008201516133b96101008501826133e9565b506101208201516133ce6101208501826133e9565b506101408201516133e3610140850182612fc4565b50505050565b6133f2816139eb565b82525050565b600060208201905061340d6000830184612f6a565b92915050565b60006040820190506134286000830185612f5b565b818103602083015261343a8184612fe2565b90509392505050565b6000610280820190506134596000830184612f79565b92915050565b60006020820190506134746000830184612fc4565b92915050565b600060608201905061348f6000830186612fd3565b61349c6020830185612f5b565b81810360408301526134ae8184612fe2565b9050949350505050565b60006060820190506134cd6000830186612fd3565b6134da6020830185612fd3565b6134e76040830184612fd3565b949350505050565b600060208201905081810360008301526135088161304e565b9050919050565b6000602082019050818103600083015261352881613085565b9050919050565b60006020820190508181036000830152613548816130bc565b9050919050565b60006020820190508181036000830152613568816130f3565b9050919050565b600060208201905081810360008301526135888161312a565b9050919050565b600060208201905081810360008301526135a881613161565b9050919050565b600060208201905081810360008301526135c881613198565b9050919050565b600060208201905081810360008301526135e8816131cf565b9050919050565b6000602082019050818103600083015261360881613206565b9050919050565b600060208201905081810360008301526136288161323d565b9050919050565b600060208201905081810360008301526136488161329a565b9050919050565b60006020820190508181036000830152613668816132d1565b9050919050565b6000610160820190506136856000830184613308565b92915050565b60006020820190506136a060008301846133e9565b92915050565b60006080820190506136bb60008301876133e9565b6136c86020830186612fd3565b6136d56040830185612f5b565b81810360608301526136e78184613018565b905095945050505050565b600060808201905061370760008301876133e9565b6137146020830186612fd3565b6137216040830185612f5b565b81810360608301526137338184612fe2565b905095945050505050565b600060808201905061375360008301876133e9565b6137606020830186612fd3565b61376d6040830185612fd3565b61377a6060830184612fd3565b95945050505050565b600060a08201905061379860008301886133e9565b6137a56020830187612fd3565b6137b260408301866133e9565b6137bf60608301856133e9565b6137cc60808301846133e9565b9695505050505050565b600060a0820190506137eb60008301886133e9565b6137f860208301876133e9565b6138056040830186612fd3565b6138126060830185612fd3565b61381f6080830184612fd3565b9695505050505050565b60006101608201905061383f600083018e6133e9565b61384c602083018d6133e9565b613859604083018c6133e9565b613866606083018b612fd3565b613873608083018a6133e9565b61388060a08301896133e9565b61388d60c08301886133e9565b61389a60e08301876133e9565b6138a86101008301866133e9565b6138b66101208301856133e9565b6138c4610140830184612fc4565b9c9b505050505050505050505050565b6000604051905081810181811067ffffffffffffffff821117156138f757600080fd5b8060405250919050565b600067ffffffffffffffff82111561391857600080fd5b601f19601f8301169050602081019050919050565b600067ffffffffffffffff82111561394457600080fd5b601f19601f8301169050602081019050919050565b6000819050919050565b600060149050919050565b600081519050919050565b600081519050919050565b6000602082019050919050565b600061399c826139cb565b9050919050565b60006139ae826139cb565b9050919050565b60008115159050919050565b6000819050919050565b600073ffffffffffffffffffffffffffffffffffffffff82169050919050565b6000819050919050565b6000613a00826139cb565b9050919050565b6000613a12826139cb565b9050919050565b6000819050919050565b6000819050919050565b82818337600083830152505050565b60005b83811015613a5a578082015181840152602081019050613a3f565b83811115613a69576000848401525b50505050565b6000601f19601f830116905091905056fea265627a7a72305820de8c74f0a2d8bbb14abb3680712dde7c5b83fe7aa052ad03e40794bcc7fdfdc86c6578706572696d656e74616cf50037",
  "source": "pragma solidity ^0.5.2;\n\npragma experimental ABIEncoderV2;\n\nimport \"../installed_contracts/zeppelin/contracts/math/SafeMath.sol\";\nimport \"../installed_contracts/zeppelin/contracts/ownership/Ownable.sol\";\nimport \"../installed_contracts/oraclize/ethereum-api/oraclizeAPI_0.5.sol\";\n\n/**\n * @title Electric Vehicles Charging marketplace for car owners and service providers\n * @author Kejitan Dontas <kejee456@gmail.com> \n * @notice Adapted from https://github.com/sapph1re/flight-tickets.git : **Roman Vinogradov** \n * \n */\ncontract EVcharging is Ownable, usingOraclize {\n\n  event LogConstructorInitiated(string nextStep);\n  event LogPriceUpdated(string price);\n  event LogNewOraclizeQuery(string description);\n\n  // SafeMath is a library that allows overflow-safe arithmetic operations\n  // Used like this: a.add(b) or a.mul(b) where a & b are uint256\n  using SafeMath for uint256;\n\n  struct EVutility {\n    // Unique autoincremented EV utility ID\n    uint256 uId;\n    // Unique evUtility name\n    bytes32 uName;\n    // Ethereum address of the owner who will manage this evUtility\n    address  payable uOwner;\n    // IPFS hash of the evUtility logo image\n    string uLogo;\n  }\n\n  \n  struct EVstation {\n    // ID of the evUtility that owns this evStation\n    uint256 uId; \n    // Unique autoincremented EV station ID\n    uint256 sId;  \n    // Station Name\n    bytes32 stationName;\n    // city\n    bytes32 city;\n    bytes32 chargerType;\n    \n  }\n\n  enum SlotState {\n    Ready,\n    Paid\n  }\n  struct Slot {\n\n    // ID of the evUtility that owns this evStation\n    uint256 uId; \n    // Unique autoincremented ID\n    uint256 sId;  \n    // Unique autoincremented ID\n    uint256 slotId;  \n    bytes32 customerName;\n    // arrival and departure times of vehicle, UTC\n    uint256 tArrival;\n    uint256 tDeparture;\n    // charge required for the vehicle\n    uint256 tKWH; // Wh requested\n    // station occupation charge rate \n    uint256 tLocationRate; // Depends on LOcation (xGrid, yGrid), time and time duration// From Oracle\n    // energy charging rate per wHour \n    uint256 tEnergyRate; // Demand response determned rate from Oracle\n    // Slot amount in wei\n    uint256 tPrice;\n    bool paid;  // Paid .. (Ready initially)\n  }\n\n  // Auxiliary entity to keep a reference to a particular entry in an array\n  struct ArrayIndex {\n    bool exists;\n    uint256 index;\n  }\n  \n  // Storage of evUtilities\n  EVutility[] public evUtilities;  // The list of evUtilities\n  uint256 public uIdLast;  // Last evUtility ID generated, used for autoincrementing\n  mapping(uint256 => ArrayIndex) private evUtilityIdIndex;  // Index to find evUtility by its ID evUtilityIdIndex[uId]\n  mapping(bytes32 => bool) private evUtilityNameExists;  // To keep track of which evUtilities names are taken\n\n  // Storage of evStations\n  EVstation[] public evStations;  // The list of evStations\n  uint256 public sIdLast;  // Last evStation ID generated, used for autoincrementing\n  mapping(uint256 => ArrayIndex) private sIdIndex;  // Index to find evStation by its ID\n  mapping(bytes32 => bool) private evStationNameExists;  // To keep track of which evUtilities names are taken\n  mapping(uint256 => uint256[]) private evStationsByEVutility;  // To find list of evStations IDs by their EVutility ID\n  // The following is a two-dimensional index to find a certain entry in an array evStationsByEVutility[uId]\n  mapping(uint256 => mapping(uint256 => ArrayIndex)) private evStationsByEVutilityIndex; //evStationsByEVutilityIndex[uId][tId]\n\n  // Storage of slots\n  Slot[] public slots;  // The list of slots  // Slots in general will not be removed..  So Id and index will be the same?\n  uint256 public slotIdLast;  // Last slot ID generated, used for autoincrementing\n  mapping(uint256 => ArrayIndex) private slotIdIndex;  // Index to find slot by its ID\n  mapping(uint256 => uint256[]) private slotsByEVstation;  // To find list of slots IDs by their EVstation ID\n  // The following is a two-dimensional index to find a certain entry in an array evStationsByEVutility[uId]\n  mapping(uint256 => mapping(uint256 => ArrayIndex)) private slotsByEVstationIndex;\n\n  uint256 public paymentIdLast;\n\n  // When an evUtility in the list is added, changed or deleted\n  event LogEVutilityAdded(uint256 indexed uId, bytes32 indexed uName, address  payable uOwner, string uLogo);\n  event LogEVutilityUpdated(uint256 indexed uId, bytes32 newUName, address  payable newUOwner, string newULogo);\n  event LogEVutilityRemoved(uint256 indexed uId);\n  // When evStation is added, changed or deleted\n  event LogEVstationAdded(\n    uint256 uId, \n    uint256 indexed sId,\n    bytes32 city,\n    bytes32 stationName,\n    bytes32 chargerType\n\n  );\n  event LogEVstationUpdated(\n    uint256 indexed sId,\n    bytes32 city,\n    bytes32 stationName,\n    bytes32 chargerType\n  );\n  \n  event LogSlotPaid(  // Check this out   kejitan\n    uint256 indexed paymentId,\n    address indexed customer,\n    uint256 indexed uId,\n    uint256 sId, \n    bytes32 customerName,\n    uint256 tPrice,\n    uint256 tArrival, \n    uint256 tDeparture );\n\n  /**\n   * @dev Make sure the caller is the owner of the evUtility\n   * @param _uId The evUtility ID\n   */\n  modifier onlyEVutilityOwner(uint256 _uId) {\n    require(evUtilityIdIndex[_uId].exists, \"EV Utility does not exist\");\n    require(evUtilities[evUtilityIdIndex[_uId].index].uOwner == msg.sender, \"Not the evUtility owner\");\n    _;\n  }\n\n  /**\n   * @dev Make sure the caller is the owner of the evStation\n   * @param _sId The evStation ID\n   */\n  modifier onlyEVstationOwner(uint256 _sId) {\n    // find the evStation\n    require(sIdIndex[_sId].exists, \"EVstation does not exist\");\n    EVstation memory evStation = evStations[sIdIndex[_sId].index]; // Why should these be memory and not memory ?? Check out kejitan\n    // find the evUtility\n    require(evUtilityIdIndex[evStation.uId].exists, \"EVutility does not exist anymore\");\n    EVutility memory evUtility = evUtilities[evUtilityIdIndex[evStation.uId].index];\n    // make sure the caller is the owner of the evUtility the evStation belongs to\n    require(evUtility.uOwner == msg.sender, \"Not the evStation owner\");\n    _;\n  }\n\n \n  /** We don't want to accept payments without booking a specific evStation */\n  function () external payable {\n    revert(\"Plain payments not accepted\");\n  }\n\n  //string public ETHUSD;\n  //mapping(bytes32=>bool) validIds;\n  //mapping (bytes32 => bool) public pendingQueries;  \n\n  /**\n   * @notice Pay for a slot\n   * @param _sId evStation ID\n   * @param _customerName customer name\n   * @param _arrival  arrival time\n   * @param _departure  departure time\n   * @param _KWH  Kilo Watt Hours (energy)\n  */\n  function paySlot(\n      uint256 _sId, \n      bytes32 _customerName,\n      uint256 _arrival, \n      uint256 _departure, \n      uint256 _KWH)\n    public\n    payable\n  {\n    // Find the evStation to which the slot belongs\n    require(sIdIndex[_sId].exists, \"evStation does not exist\");\n    EVstation storage evStation = evStations[sIdIndex[_sId].index];\n    // Find the evUtility that owns it\n    require(evUtilityIdIndex[evStation.uId].exists, \"EVutility does not exist\");\n    EVutility storage evUtility = evUtilities[evUtilityIdIndex[evStation.uId].index];\n  \n    //uint256 tPrice = tLocationRate*(_departure - _arrival) + tEnergyRate*_KWH;\n    uint256 tPrice = getCost(_sId, _arrival, _departure, _KWH);\n    require(msg.value >= tPrice, \"Insufficient funds\"); \n     \n      // Save information about the purchase\n      uint256 paymentId = paymentIdLast.add(1);\n      paymentIdLast = paymentId;\n    \n      uint256 slotId = slotIdLast.add(1);\n    \n      //slots.push(slot);\n      uint256 _index = slots.push(Slot (\n        evStation.uId,\n        _sId, \n        slotId,  \n        //msg.sender,\n        _customerName,\n        _arrival,\n        _departure,\n        _KWH,\n        getLocationRate(_sId), \n        getEnergyRate(_sId), \n        tPrice,\n        true )) - 1;\n\n      slotIdIndex[slotId].exists = true;\n      slotIdIndex[slotId].index = _index;\n\n      // Send the money to the evUtility owners\n      evUtility.uOwner.transfer(tPrice);\n    \n    // Send back the change if there is anything left\n    if ((msg.value - tPrice) > 0) {\n      msg.sender.transfer(msg.value - tPrice);\n    }\n\n    emit LogSlotPaid( paymentId, msg.sender, evStation.uId, evStation.sId,  \n                      _customerName, tPrice, _arrival, _departure);\n }\n\n  /**\n   * @notice Location rate of the station where the vehicle is charged. Do it via Oracle\n   * @param _sId evStation ID.\n  */\n   function getLocationRate(uint256 _sId)\n    public pure returns (uint256) {\n      // Oraclize and get rate and calulate cost abd return\n      //EVstation memory evStation =  evStations[sIdIndex[_sId].index];\n      _sId++;\n      return 10000000000000;\n    }\n\n  /**\n   * @notice Energy rate of the station where the vehicle is charged. Do it via Oracle\n   * @param _sId evStation ID.\n  */\n   function getEnergyRate(uint256 _sId)\n    public pure returns (uint256) {\n      // Oraclize and get rate and calulate cost abd return\n      //EVstation memory evStation =  evStations[sIdIndex[_sId].index];\n      _sId++;\n      return 3000000000000000;\n    }\n \n  /**\n   * @notice Calculate cost of charging the vehicle.\n   * @param _sId evStation ID.\n   * @param _arrival  arrival time\n   * @param _departure  departure time\n   * @param _KWH Kilo Watt Hours (energy)\n  */\n  function getCost(uint256 _sId, uint256 _arrival, uint256 _departure, uint256 _KWH)\n    public pure returns(uint256) {\n    uint256 locationRate = getLocationRate(_sId);\n    uint256 interval = _departure.sub(_arrival);\n    uint256 locationCost = locationRate.mul(interval);\n    uint256 energyRate = getEnergyRate(_sId);\n    uint256 energyCost = energyRate.mul(_KWH);\n    uint256 cost = locationCost.add(energyCost);\n    return cost; \n  }\n  \n  /**\n   * @notice Check if the evUtility name is taken or not\n   * @dev Useful for input validation both in the contract and in the frontend\n   * @param _uName Name to check\n   * @return true if name exists, false otherwise\n   */\n  function evUtilityExists(bytes32 _uName) public view returns (bool) {\n    return evUtilityNameExists[_uName];\n  }\n\n  /**\n   * @notice Get the number of evUtilities stored\n   * @dev Use it in the frontend to iterate over evUtilities\n   * @return The number of evUtilities\n   */\n  function getEVutilityCount() public view returns (uint256) {\n    return evUtilities.length;\n  }\n\n/**\n   * @notice Get the number of evStations stored\n   * @dev Use it in the frontend to iterate over evStations\n   * @return The number of evStations\n   */\n  function getEVstationCount() public view returns (uint256) {\n    return evStations.length;\n  }\n\n/**\n   * @notice Get the number of evStations stored for given uId (evUtility)\n     @param uId Id of evUtility for which the the number of stations are required\n   * @dev Use it in the frontend to iterate over evStations\n   * @return The number of evStations\n   */\n  function getEVstationCount(uint256 uId) public view returns (uint256) {\n    uint256 numEVstations = 0;\n    for(uint256 i; i < evStations.length; i++) {\n      //EVstation evStation = evStations[i];\n      if ( uId == evStations[i].uId) \n        numEVstations++;\n    }\n    return numEVstations;\n  }\n\n  /**\n   * @notice Get a certain evUtility by its ID\n   * @param _uId ID of the evUtility\n   * @return EVutility data\n   */\n  function getEVutilityById(uint256 _uId) public view returns(\n    uint256 uId,\n    bytes32 uName,\n    address payable  uOwner,\n    string memory uLogo\n  ) {\n    require(evUtilityIdIndex[_uId].exists, \"EVutility does not exist\");\n    EVutility memory evUtility = evUtilities[evUtilityIdIndex[_uId].index];\n    return (evUtility.uId, evUtility.uName, evUtility.uOwner, evUtility.uLogo);\n  }\n\n  /**\n   * @notice Get the number of evStations from a given evUtility\n   * @dev Use it in the frontend to iterate over evStations by evUtility\n   * @param _uId ID of the evUtility\n   * @return The number of evStation owned by the evUtility\n   */\n  function getEVstationsCount(uint256 _uId) public view returns (uint256) {\n    require(evUtilityIdIndex[_uId].exists, \"EVutility does not exist\");\n    return evStationsByEVutility[_uId].length;\n  }\n \n  /**\n   * @notice Get a certain evStation by its ID\n   * @param _sId ID of the evStation\n   * @return EVstation data\n   */\n  function getEVstationById(uint256 _sId)\n    public\n    view\n    returns(\n      uint256 uId,\n      uint256 sId,\n      bytes32 city,\n      bytes32 stationName,\n      bytes32 chargerType\n    )\n  {\n    require(sIdIndex[_sId].exists, \"EVstation does not exist\");\n    EVstation memory evStation = evStations[sIdIndex[_sId].index];\n    return (\n      evStation.uId,\n      evStation.sId,\n      evStation.city,\n      evStation.stationName,\n      evStation.chargerType\n    );\n  }\n \n   /**\n   * @notice Get a certain slot by its ID\n   * @param _slotId ID of the slot\n   * @return Slot data\n   */\n  function getSlotById(uint256 _slotId)\n    public\n    view\n    returns (Slot memory) \n  {\n    require(slotIdIndex[_slotId].exists, \"Slot does not exist\");\n    Slot memory slot = slots[slotIdIndex[_slotId].index];\n    return slot;\n  }\n\n  /**\n   * @notice Get N-th evStation of a given evKioiskChain\n   * @param _uId ID of the evKioiskChain\n   * @param _index Index of the item to get (the N)\n   * @return EVstation data\n   */\n  function getEVstationByEVutility(uint256 _uId, uint256 _index)\n    public\n    view\n    returns (\n      uint256,\n      uint256,\n      bytes32,\n      bytes32,\n      bytes32 \n    )\n  {\n    uint256 sId = evStationsByEVutility[_uId][_index];\n    return getEVstationById(sId);\n  }\n\n  //event testFindVacantEVStations(bytes32 _city, bytes32 _ctype, uint256 _arrival, uint256 _departure );\n\n  /**\n   * @notice Finds evStations where charging slots are vacant at desired time\n   * @param _city  city\n   * @param _ctype  charger type\n   * @param _arrival  arrival time\n   * @param _departure  departure time\n   * @return array of evStations where slot is vacant at desired time.\n   */\n  function findVacantEVStations(bytes32 _city, bytes32 _ctype, uint256 _arrival, uint256 _departure )\n    public view returns(uint256[20] memory ) {\n      //emit testFindVacantEVStations(_city, _ctype, _arrival, _departure );\n      //console.log(\"in findVacantEVStations\");\n      uint256 maxEVStationsFound = 20;\n      uint256[20] memory evStationsFound;\n      uint256[20] memory vacantEVStations;\n\n      uint256 i = 0; //evStationsFound counter\n      uint256 j = 0;  //evStations counter\n      uint256 k = 0;  //vacantStations Counter\n    \n      for (j = 0; j < evStations.length; j++) {\n        EVstation memory evStation = evStations[j];\n        //EVstation memory evStation = getEVstationById(j);\n    \n        if (evStation.city == _city &&\n          evStation.chargerType == _ctype) {\n            evStationsFound[i++] = evStation.sId;\n            if (i == maxEVStationsFound) {\n              break;\n           }          \n        }\n      }\n      \n      uint256 newEVStationsFound = i;\n      \n      for (uint256 m = 0; m < newEVStationsFound; m++) {\n        if (isStationVacant(evStationsFound[m], _arrival, _departure)) {\n          vacantEVStations[k] = evStationsFound[m];\n          k++;\n        }\n      }\n      \n      return vacantEVStations;\n    }\n\n  /**\n   * @notice Tests if evStation is vacant at given time\n   * @param _sId  evStation Id\n   * @param _arrival  arrival time\n   * @param _departure  departure time\n   * @return bool.\n   */\n  function isStationVacant(uint256 _sId, uint256 _arrival, uint256 _departure) \n    public view returns (bool){\n\n    uint256[1024] memory slotsFound;\n    uint256 i = 0;\n    uint256 numSlotsFound = 0;\n\n    // need to select slots for the station and \n    for (uint256 j = 0; j < slots.length; j++) {\n      //Slot memory slot = getSlotById(slotId);\n      //Slot memory slot = slots[slotIdIndex[slotId].index];\n      Slot memory slot = slots[j];\n\n      if (slot.sId == _sId ) {\n            slotsFound[i++] = slot.slotId;\n            numSlotsFound++;\n            if (numSlotsFound == 1024) break;\n      }\n    }\n\n     for (uint256 k = 0; k < numSlotsFound; k++) {\n        uint256 slotId = slotsFound[k];\n        Slot memory aslot = getSlotById(slotId);\n        //Slot memory aslot = slots[slotIdIndex[slotId].index];\n        //Slot memory aslot = slots[slotId];\n        if(\n            ( (_arrival >= aslot.tArrival) &&\n              (_arrival <= aslot.tDeparture)\n            ) || \n            ( (_departure >= aslot.tArrival) &&\n              (_departure <= aslot.tDeparture)\n            ) || \n            ( (aslot.tArrival >= _arrival) &&\n              (aslot.tArrival <= _departure)\n            ) || \n            ( (aslot.tDeparture >= _arrival) &&\n              (aslot.tDeparture <= _departure)\n            ) \n        ) { \n            return false;\n          }\n    }    \n        \n    return true;\n\n  }\n\n\n  /**\n   * @notice Add an EVutility to the list\n   * @dev \n   * @param _uName Name of the evUtility, must be unique (transaction will fail otherwise)\n   * @param _uOwner Address of the evUtility owner, can be any Ethereum address\n   * @param _uLogo Logo of the evUtility\n   */\n  function addEVutility(bytes32 _uName, address  payable _uOwner, string memory  _uLogo) public onlyOwner {\n    require(!evUtilityExists(_uName), \"evUtility name is already taken\");\n    // generate new evUtility ID\n    uint256 _uId = uIdLast.add(1);\n    uIdLast = _uId;\n    // add a new EVutility record to evUtilities array and save its index in the array\n    uint256 _index = evUtilities.push(EVutility(_uId, _uName, _uOwner, _uLogo)) - 1;\n    evUtilityIdIndex[_uId].exists = true;\n    evUtilityIdIndex[_uId].index = _index;\n    // occupy the evUtility\n    evUtilityNameExists[_uName] = true;\n    emit LogEVutilityAdded(_uId, _uName, _uOwner, _uLogo);\n  }\n\n  /**\n   * @notice Change an existing evStationChevUtilityain\n   * @param _uId ID of the evUtility that is being changed (ID itself does not change)\n   * @param _newUName New name of the evUtility, must be unique or remain unchanged\n   * @param _newUOwner New owner of the evUtility\n   * @param _newULogo New logo of the evUtility\n   */\n  function editEVutility(uint256 _uId, bytes32 _newUName, address payable  _newUOwner, string memory _newULogo)\n    public\n    onlyOwner\n  {\n    require(evUtilityIdIndex[_uId].exists, \"EVutility does not exist\");\n    // get index of the array element being changed\n    uint256 _index = evUtilityIdIndex[_uId].index;\n    // if the name has changed, check it's unique and save it\n    if (_newUName != evUtilities[_index].uName) {\n      require(!evUtilityExists(_newUName), \"New evUtility name is already taken\");\n      // free the old name, occupy the new one\n      evUtilityNameExists[evUtilities[_index].uName] = false;\n      evUtilityNameExists[_newUName] = true;\n      evUtilities[_index].uName = _newUName;\n    }\n    // simply update the owner and the logo\n    evUtilities[_index].uOwner = _newUOwner;\n    evUtilities[_index].uLogo = _newULogo;\n    emit LogEVutilityUpdated(_uId, _newUName, _newUOwner, _newULogo);\n  }\n\n  \n  /**\n   * @notice Add an evStation to the list\n   * @dev Use the emitted LogEVstationAdded event to get the new evStation's generated ID\n   * @dev further the evStation must belong to the evUtility -- how to ensure this?\n   * @param _uId ID of the evUtility; the evUtility must be owned by the caller!\n   * @param _stationName Name of the evStation\n   * @param _city city where the evStation is located\n   * @param _chargerType Charger bytes32 of the evStation\n   */\n  function addEVstation(\n    uint256 _uId,\n    bytes32 _city,\n    bytes32 _stationName,\n    bytes32 _chargerType\n  ) public onlyEVutilityOwner(_uId) {\n    // generate new evStation ID\n    uint256 sId = sIdLast.add(1);\n    sIdLast = sId;\n   // add a new evStation record to evStations array and save its index in the array\n    EVstation memory evStation = EVstation(\n      _uId,\n      sIdLast,\n      _stationName,\n      _city,\n      _chargerType\n    );\n    uint256 _index = evStations.push(evStation) - 1;\n    sIdIndex[sIdLast].exists = true;\n    sIdIndex[sIdLast].index = _index;\n    // add the evStation ID to the list of this evUtility's evStations\n    uint256 _index2 = evStationsByEVutility[_uId].push(sIdLast) - 1;\n    // and save the index of this entry too, to be able to manage it later\n    evStationsByEVutilityIndex[_uId][sIdLast].exists = true;\n    evStationsByEVutilityIndex[_uId][sIdLast].index = _index2;\n    emit LogEVstationAdded(\n      _uId,\n      sIdLast,\n      _stationName,\n      _city,\n      _chargerType\n    );\n  }\n\n  /**\n   * @notice Change an existing evStation\n   * @param _sId ID of the evStation that is being changed (ID itself does not change)\n   * @param _stationName name of the evStation\n   * @param _newType New Charger type for the evStation\n   */\n  function editEVstation(uint256 _sId, bytes32 _city, bytes32 _stationName, bytes32 _newType)\n    public\n    onlyEVstationOwner(_sId)\n  {\n    // update the evStation data -- kejitan -- retetrieve proper evStation\n    uint256 _index = sIdIndex[_sId].index;\n    evStations[_index].city = _city;\n    evStations[_index].stationName = _stationName;\n    evStations[_index].chargerType = _newType;\n    emit LogEVstationUpdated(_sId, _city, _stationName,  _newType);\n  }\n\n  \n}\n\n  //constructor () public payable {\n    //oraclize_setCustomGasPrice(4000000000);\n    //oraclize_setProof(proofType_TLSNotary | proofStorage_IPFS);\n    //emit LogConstructorInitiated(\"Constructor was initiated. Call 'updatePrice()' to send the Oraclize Query.\");\n  // }\n/*\n  function __callback(bytes32 myid, string memory  result) public {\n    //if (!validIds[myid]) revert();\n    //if (msg.sender != oraclize_cbAddress()) revert();\n    require (pendingQueries[myid] == true, \"pendingQueries[myid] == true\");\n    ETHUSD = result;\n    emit LogPriceUpdated(result);\n    delete validIds[myid];\n    delete pendingQueries[myid]; // This effectively marks the query id as processed.\n    //updatePrice();\n  }\n\n  function updatePrice() public payable {\n    //if (oraclize_getPrice(\"URL\") > this.balance) {\n    if (oraclize_getPrice(\"URL\") > uint256(1000000000000000)) {\n      emit LogNewOraclizeQuery(\"Oraclize query was NOT sent, please add some ETH to cover for the query fee\");\n    } else {\n      emit LogNewOraclizeQuery(\"Oraclize query was sent, standing by for the answer..\");\n      bytes32 queryId =\n        oraclize_query(\"URL\", \"json(https://api.pro.coinbase.com/products/ETH-USD/ticker).price\");\n      validIds[queryId] = true;\n      pendingQueries[queryId] = true;\n\n    }\n  }\n*/\n  //oraclize_query(\"URL\", \"https://api.kraken.com/0/public/Ticker?pair=ETHXBT\")\n\n  //oraclize_query(\"URL\", \"json(https://www.therocktrading.com/api/ticker/BTCEUR).result.0.last\")\n\n  // The URL datasource also supports a supplement argument, useful for creating HTTP POST requests.\n  // If that argument is a valid JSON string, it will be automatically sent as JSON.\n  //oraclize_query(\"URL\", \"json(https://shapeshift.io/sendamount).success.deposit\",\n  //  '{\"pair\":\"eth_btc\",\"amount\":\"1\",\"withdrawal\":\"1AAcCo21EUc1jbocjssSQDzLna9Vem2UN5\"}')\n\n",
  "sourcePath": "/home/kejitan/Desktop/EVcharging10/contracts/EVcharging.sol",
  "compiler": {
    "name": "solc",
    "version": "0.5.2+commit.1df8f40c.Emscripten.clang"
  },
  "schemaVersion": "3.0.1",
  "updatedAt": "2019-01-24T06:00:13.785Z",
  "devdoc": {
    "author": "Kejitan Dontas <kejee456@gmail.com> ",
    "methods": {
      "addEVstation(uint256,bytes32,bytes32,bytes32)": {
        "details": "Use the emitted LogEVstationAdded event to get the new evStation's generated IDfurther the evStation must belong to the evUtility -- how to ensure this?",
        "params": {
          "_chargerType": "Charger bytes32 of the evStation",
          "_city": "city where the evStation is located",
          "_stationName": "Name of the evStation",
          "_uId": "ID of the evUtility; the evUtility must be owned by the caller!"
        }
      },
      "addEVutility(bytes32,address,string)": {
        "params": {
          "_uLogo": "Logo of the evUtility",
          "_uName": "Name of the evUtility, must be unique (transaction will fail otherwise)",
          "_uOwner": "Address of the evUtility owner, can be any Ethereum address"
        }
      },
      "editEVstation(uint256,bytes32,bytes32,bytes32)": {
        "params": {
          "_newType": "New Charger type for the evStation",
          "_sId": "ID of the evStation that is being changed (ID itself does not change)",
          "_stationName": "name of the evStation"
        }
      },
      "editEVutility(uint256,bytes32,address,string)": {
        "params": {
          "_newULogo": "New logo of the evUtility",
          "_newUName": "New name of the evUtility, must be unique or remain unchanged",
          "_newUOwner": "New owner of the evUtility",
          "_uId": "ID of the evUtility that is being changed (ID itself does not change)"
        }
      },
      "evUtilityExists(bytes32)": {
        "details": "Useful for input validation both in the contract and in the frontend",
        "params": {
          "_uName": "Name to check"
        },
        "return": "true if name exists, false otherwise"
      },
      "findVacantEVStations(bytes32,bytes32,uint256,uint256)": {
        "params": {
          "_arrival": "arrival time",
          "_city": "city",
          "_ctype": "charger type",
          "_departure": "departure time"
        },
        "return": "array of evStations where slot is vacant at desired time."
      },
      "getCost(uint256,uint256,uint256,uint256)": {
        "params": {
          "_KWH": "Kilo Watt Hours (energy)",
          "_arrival": "arrival time",
          "_departure": "departure time",
          "_sId": "evStation ID."
        }
      },
      "getEVstationByEVutility(uint256,uint256)": {
        "params": {
          "_index": "Index of the item to get (the N)",
          "_uId": "ID of the evKioiskChain"
        },
        "return": "EVstation data"
      },
      "getEVstationById(uint256)": {
        "params": {
          "_sId": "ID of the evStation"
        },
        "return": "EVstation data"
      },
      "getEVstationCount()": {
        "details": "Use it in the frontend to iterate over evStations",
        "return": "The number of evStations"
      },
      "getEVstationCount(uint256)": {
        "details": "Use it in the frontend to iterate over evStations",
        "params": {
          "uId": "Id of evUtility for which the the number of stations are required"
        },
        "return": "The number of evStations"
      },
      "getEVstationsCount(uint256)": {
        "details": "Use it in the frontend to iterate over evStations by evUtility",
        "params": {
          "_uId": "ID of the evUtility"
        },
        "return": "The number of evStation owned by the evUtility"
      },
      "getEVutilityById(uint256)": {
        "params": {
          "_uId": "ID of the evUtility"
        },
        "return": "EVutility data"
      },
      "getEVutilityCount()": {
        "details": "Use it in the frontend to iterate over evUtilities",
        "return": "The number of evUtilities"
      },
      "getEnergyRate(uint256)": {
        "params": {
          "_sId": "evStation ID."
        }
      },
      "getLocationRate(uint256)": {
        "params": {
          "_sId": "evStation ID."
        }
      },
      "getSlotById(uint256)": {
        "params": {
          "_slotId": "ID of the slot"
        },
        "return": "Slot data"
      },
      "isOwner()": {
        "return": "true if `msg.sender` is the owner of the contract."
      },
      "isStationVacant(uint256,uint256,uint256)": {
        "params": {
          "_arrival": "arrival time",
          "_departure": "departure time",
          "_sId": "evStation Id"
        },
        "return": "bool."
      },
      "owner()": {
        "return": "the address of the owner."
      },
      "paySlot(uint256,bytes32,uint256,uint256,uint256)": {
        "params": {
          "_KWH": "Kilo Watt Hours (energy)",
          "_arrival": "arrival time",
          "_customerName": "customer name",
          "_departure": "departure time",
          "_sId": "evStation ID"
        }
      },
      "renounceOwnership()": {
        "details": "Allows the current owner to relinquish control of the contract."
      },
      "transferOwnership(address)": {
        "details": "Allows the current owner to transfer control of the contract to a newOwner.",
        "params": {
          "newOwner": "The address to transfer ownership to."
        }
      }
    },
    "title": "Electric Vehicles Charging marketplace for car owners and service providers"
  },
  "userdoc": {
    "methods": {
      "addEVstation(uint256,bytes32,bytes32,bytes32)": {
        "notice": "Add an evStation to the list"
      },
      "addEVutility(bytes32,address,string)": {
        "notice": "Add an EVutility to the list"
      },
      "editEVstation(uint256,bytes32,bytes32,bytes32)": {
        "notice": "Change an existing evStation"
      },
      "editEVutility(uint256,bytes32,address,string)": {
        "notice": "Change an existing evStationChevUtilityain"
      },
      "evUtilityExists(bytes32)": {
        "notice": "Check if the evUtility name is taken or not"
      },
      "findVacantEVStations(bytes32,bytes32,uint256,uint256)": {
        "notice": "Finds evStations where charging slots are vacant at desired time"
      },
      "getCost(uint256,uint256,uint256,uint256)": {
        "notice": "Calculate cost of charging the vehicle."
      },
      "getEVstationByEVutility(uint256,uint256)": {
        "notice": "Get N-th evStation of a given evKioiskChain"
      },
      "getEVstationById(uint256)": {
        "notice": "Get a certain evStation by its ID"
      },
      "getEVstationCount()": {
        "notice": "Get the number of evStations stored"
      },
      "getEVstationCount(uint256)": {
        "notice": "Get the number of evStations stored for given uId (evUtility)"
      },
      "getEVstationsCount(uint256)": {
        "notice": "Get the number of evStations from a given evUtility"
      },
      "getEVutilityById(uint256)": {
        "notice": "Get a certain evUtility by its ID"
      },
      "getEVutilityCount()": {
        "notice": "Get the number of evUtilities stored"
      },
      "getEnergyRate(uint256)": {
        "notice": "Energy rate of the station where the vehicle is charged. Do it via Oracle"
      },
      "getLocationRate(uint256)": {
        "notice": "Location rate of the station where the vehicle is charged. Do it via Oracle"
      },
      "getSlotById(uint256)": {
        "notice": "Get a certain slot by its ID"
      },
      "isStationVacant(uint256,uint256,uint256)": {
        "notice": "Tests if evStation is vacant at given time"
      },
      "paySlot(uint256,bytes32,uint256,uint256,uint256)": {
        "notice": "Pay for a slot"
      },
      "renounceOwnership()": {
        "notice": "Renouncing to ownership will leave the contract without an owner. It will not be possible to call the functions with the `onlyOwner` modifier anymore."
      }
    },
    "notice": "Adapted from https://github.com/sapph1re/flight-tickets.git : **Roman Vinogradov**   "
  }
}